:100000000C9438010C9469010C9469010C946901F9
:100010000C9469010C9469010C9469010C946901B8
:100020000C9469010C9469010C9469010C946901A8
:100030000C9469010C9469010C9469010C94690198
:100040000C9469010C9478080C9469010C94690172
:100050000C9469010C9469010C9469010C94A80634
:100060000C9469010C94C4070C949A070C946901D0
:100070000C9469010C9469010C9469010C94690158
:100080000C944A080C9469010C9469010C94690160
:100090000C9470070C9446070C9469010C94690148
:1000A0000C9469010C9469010C941C080C9469016E
:1000B0000C9469010C9469010C9469010C94EE078D
:1000C0000C9469010C9469010C9469010C941C074F
:1000D0000C94F2060C9469010C9469010C9469016A
:1000E0000C9469010C94E3010C94CB030C94CF01A4
:1000F0000C94F5010C94CB010C9432030C94A608DB
:100100000C9489020C9424030C94BA010C94C2013F
:100110000C94E7010C94C5010C94DE020C947E0350
:100120000C94F1010C94D9010C94DD010C94EB01B9
:100130000C94B0010C94F0010C94680D0C94BE0169
:100140000C94CF020C94B6010C94D5010000200051
:100150002300260029002C002F003200000100009F
:1001600003010601090100002100240027002A00E4
:100170002D003000330001010000040107010A01D5
:1001800000002200250028002B002E003100340042
:1001900002010000050108010B0105050505070521
:1001A00008080808020202020A0A080804040404F3
:1001B000010101010101010103030303030303031F
:1001C000040707070C0C0C0C0C0C0C0C02020202AE
:1001D00006060606060606060B0B0B0B0B0B0B0B97
:1001E0000102102020080810204010204080020149
:1001F000020108040201010204081020408080402E
:10020000201008040201800402018040201008042C
:1002100002010804020101020408102040800102CA
:1002200004081020408000000A0B02090C0D0E0883
:1002300007030401000000000000000000000000AF
:1002400000000000000000000000000000000000AE
:10025000000012111000000000000000000000006B
:10026000000000000000000000000000A608680D6B
:1002700011241FBECFEFD1E2DEBFCDBF00E00CBF27
:1002800012E0A0E0B2E0E2EDF0E200E00BBF02C05D
:1002900007900D92A435B107D9F725E0A4E5B2E0A7
:1002A00001C01D92AF30B207E1F711E0C7E3D1E022
:1002B00000E006C021970109802FFE010E94200E58
:1002C000C633D10780E00807A9F70E948E090C9475
:1002D00057100C940000FC01A089B18982E08C9336
:1002E000A485B5851C92A685B7858FEC8C93108E5E
:1002F000A489B58986E08C93A289B3898C918061A9
:100300008C93A289B3898C9188608C93A289B389DC
:100310008C9180688C930288F389E02D80818F7D99
:10032000808308958150823108F05AC0E82FF0E0B0
:100330008827E256FE4F8F4F0C94200EBE01C2015B
:10034000B001B601BA01F001C501CB01CF01D50161
:10035000D901DD01E301E701F001EB01F101F50154
:10036000809180008F778093800008958091800035
:100370008F7DF9CF80918000877FF5CF84B58F770F
:1003800084BD089584B58F7DFBCF8091B0008F77B9
:100390008093B00008958091B0008F7DF9CF809157
:1003A00090008F77809390000895809190008F7DCA
:1003B000F9CF80919000877FF5CF8091A0008F7753
:1003C0008093A00008958091A0008F7DF9CF809147
:1003D000A000877FF5CF809120018F778093200147
:1003E0000895809120018F7DF9CF80912001877F32
:1003F000F5CF1F93CF93DF93282F30E0F901EA5D0B
:10040000FD4F8491F901E052FE4FD491F901E65677
:10041000FE4FC491CC23A9F0162F81110E949201A6
:10042000EC2FF0E0EE0FFF1FE058FE4FA591B491C6
:100430008FB7F894EC91111108C0D095DE23DC93AE
:100440008FBFDF91CF911F910895DE2BF8CFCF930F
:10045000DF9390E0FC01E052FE4F249186569E4FC0
:10046000FC0184918823D1F090E0880F991FFC0152
:10047000EA59FE4FA591B491FC01E058FE4FC59199
:10048000D491623071F49FB7F8943C91822F80959B
:1004900083238C93E8812E2B28839FBFDF91CF91FC
:1004A00008958FB7F894EC912E2B2C938FBFF6CF35
:1004B0003FB7F8948091810290918202A0918302CB
:1004C000B091840226B5A89B05C02F3F19F0019674
:1004D000A11DB11D3FBFBA2FA92F982F8827BC019E
:1004E000CD01620F711D811D911D42E0660F771FC6
:1004F000881F991F4A95D1F708952FB7F8946091F6
:100500007D0270917E0280917F02909180022FBFC8
:100510000895AF92BF92CF92DF92EF92FF920F9326
:100520001F93CF93DF936C017B018B01040F151F89
:10053000EB015E01AE18BF08C017D10759F06991F1
:10054000D601ED91FC910190F081E02DC601199545
:10055000892B79F7C501DF91CF911F910F91FF9002
:10056000EF90DF90CF90BF90AF900895FC01A089ED
:10057000B1898C91A689B78982FD0FC09C91818D2C
:100580008F5F8F73228D821749F0A18DAE0FBF2F21
:10059000B11D5D969C93818F08958C910895FC0107
:1005A000538D448D252F30E0842F90E0821B930BD8
:1005B000541710F0CF96089501970895FC01918D7E
:1005C000828D981761F0A28DAE0FBF2FB11D5D9681
:1005D0008C91928D9F5F9F73928F90E008958FEF23
:1005E0009FEF08950F931F930E947D026093C703AE
:1005F0007093C8038093C9039093CA038FEB93E071
:100600000E94DE0297FF1DC00E947D020091C70379
:100610001091C8032091C9033091CA03601B710B6C
:10062000820B930B0091C3031091C4032091C50367
:100630003091C6036017710782079307F8F28FEFB6
:100640009FEF1F910F910895FC01918D828D981756
:1006500031F0828DE80FF11D858D90E008958FEFC8
:100660009FEF0895FC01918D228D892F90E0805C91
:100670009F4F821B91098F739927089585E892E017
:100680000E94320321E0892B09F420E0822F089593
:1006900082E293E00E94320321E0892B09F420E0FA
:1006A000822F08958FEB93E00E94320321E0892B83
:1006B00009F420E0822F0895FC01A48DA80FB92F22
:1006C000B11DA35ABF4F2C91848D90E001968F737A
:1006D0009927848FA689B7892C93A089B1898C9199
:1006E000837080648C93938D848D981306C00288E8
:1006F000F389E02D80818F7D80830895EF92FF92B2
:100700000F931F93CF93DF93EC0181E0888F9B8D34
:100710008C8D98131AC0E889F989808185FF15C0EE
:100720009FB7F894EE89FF896083E889F989808111
:100730008370806480839FBF81E090E0DF91CF91E0
:100740001F910F91FF90EF900895F62E0B8D10E002
:100750000F5F1F4F0F731127E02E8C8D8E110CC071
:100760000FB607FCFACFE889F989808185FFF5CFBC
:10077000CE010E945C03F1CFEB8DEC0FFD2FF11D3C
:10078000E35AFF4FF0829FB7F8940B8FEA89FB89F9
:1007900080818062CFCFCF93DF93EC01888D882357
:1007A000B9F0AA89BB89E889F9898C9185FD03C0D4
:1007B000808186FD0DC00FB607FCF7CF8C9185FFB9
:1007C000F2CF808185FFEDCFCE010E945C03E9CF9F
:1007D000DF91CF91089580E090E0892B29F00E946D
:1007E000520381110E94000080E090E0892B29F0E3
:1007F0000E94480381110E94000080E090E0892B54
:1008000029F00E943E0381110E94000080E090E0E8
:10081000892B49F080E090E0892B29F00E940000AC
:1008200081110C9400000895CF92DF92EF92FF9215
:10083000CF93DF93EC01603282E07807CCF5653B23
:10084000710514F064EB70E0898128E830E0281B22
:10085000310987FD3395220F331F220F331F6901A2
:10086000330FEE08FF088A8128E532E0281B3109A2
:1008700087FD3395220F331F220F331F032E000CE9
:10088000440B550B2C193D094E095F09DB0177FF1D
:1008900002C0B0E0A0E00E94DB0D24EB30E040E0BD
:1008A00050E00E94B10DC20ED31EE41EF51EB6012B
:1008B000E881E03370F5298188E890E0821B910996
:1008C00027FD9395880F991F880F991F681779073F
:1008D0007CF02A8188E592E0821B910927FD93959F
:1008E000880F991F880F991F681779070CF4CB019F
:1008F0000297880F991F4FB7F8942E2F30E0F90117
:10090000EE0FFF1FE20FF31FE45AFB4F9283818328
:100910004FBFDF91CF91FF90EF90DF90CF90089580
:10092000AF92BF92CF92DF92EF92FF920F931F93FD
:10093000CF93DF936B017A01EC01CB5ADD4F288115
:100940003CE0389F8001399F100D1124A090EC04E9
:10095000B12C27FF1FC0FB011182108288818F5F9D
:10096000888388819801280F311D87FD3A95F6010B
:100970002A153B051CF488818C30C4F1808191815B
:10098000049680349C4908F473C0F60180819181FB
:10099000049670C088819801280F311D87FD3A9513
:1009A0002A153B05DCF68881A801480F511D87FDFB
:1009B0005A95FA01EE0FFF1FE40FF51FE45AFB4FA3
:1009C000808186FFCBCF8881F801E80FF11D87FD7C
:1009D000FA95CF01EE0FFF1FE80FF91FE45AFB4F06
:1009E000808160E08F730E94F901B8CF808191818E
:1009F0002881A801420F511D27FD5A959A01FA013D
:100A0000EE0FFF1FE20FF31FE45AFB4F21813281EB
:100A1000820F931FF7019183808388819801280FAB
:100A2000311D87FD3A95F901EE0FFF1FE20FF31F0D
:100A3000E45AFB4F808186FF22C08881080F111D78
:100A400087FD1A95F801EE0FFF1FE00FF11FE45A22
:100A5000FB4F808161E08F73DF91CF911F910F91E8
:100A6000FF90EF90DF90CF90BF90AF900C94F90182
:100A700080E49CE9F701918380838FEF8883DF9185
:100A8000CF911F910F91FF90EF90DF90CF90BF908B
:100A9000AF900895FC0180819181009711F00C9432
:100AA000C40E08950F931F93CF93DF93EC018881B9
:100AB0009981009759F02A813B812617370730F03A
:100AC00081E0DF91CF911F910F9108958B016F5FAE
:100AD0007F4F0E944D0F009759F0998388831B83A5
:100AE0000A832C813D81232B59F7FC011082E8CF2A
:100AF00080E0E7CFEF92FF920F931F93CF93DF93A6
:100B000041155105B1F07B01EC010C811D81040FF1
:100B1000151FB8010E945205882361F02881398190
:100B20008C819D81B701820F931F0E9442101D830B
:100B30000C8381E0DF91CF911F910F91FF90EF9097
:100B40000895CF93DF931F921F92CDB7DEB76983CD
:100B50001A8241E050E0BE016F5F7F4F0E947A052C
:100B60000F900F90DF91CF910895FB01019000202D
:100B7000E9F73197AF01461B570B0C947A05EF92BA
:100B8000FF920F931F93CF93DF93EC017B018A01B8
:100B9000BA010E94520528813981811114C02115A2
:100BA000310519F0C9010E94C40E198218821D82F4
:100BB0001C821B821A82CE01DF91CF911F910F916F
:100BC000FF90EF9008951D830C83B701C9010E9427
:100BD0004210F1CFFB0101900020E9F73197AF01FE
:100BE000461B570B0C94BF05FC0111821082138227
:100BF000128215821482FB0101900020E9F73197DF
:100C0000AF01461B570B0C94BF058F929F92AF927A
:100C1000BF92CF92DF92EF92FF920F931F93CF93E9
:100C2000DF9300D000D0CDB7DEB7FC01A480B58043
:100C3000A114B10409F46CC04B017C010081118145
:100C40006AE370E0C8010E943710009709F460C0A1
:100C50009C01201B310B89010F3F100709F458C07C
:100C60000F5F1F4FA016B10628F4902F812F85012A
:100C7000A92EB82E62E572E0CE0101960E94F4051D
:100C8000F701C480D5800C151D05E8F4AC14BD0433
:100C900008F46501F70160817181FB01EC0DFD1D18
:100CA000B0801082600F711F6115710509F443C097
:100CB000CE0101960E94EA05F70180819181C80E5C
:100CC000D91EF601B0824D815E8169817A81F4017D
:100CD00090E080E084179507BCF48417950730F402
:100CE000DB01A80FB91F6115710521F410925402A0
:100CF000A4E5B2E021E03C91313309F020E02193FA
:100D000001968A30910531F7CE0101960E944A057D
:100D100026960FB6F894DEBF0FBECDBFDF91CF9100
:100D20001F910F91FF90EF90DF90CF90BF90AF9009
:100D30009F908F90089589819A81009711F00E9469
:100D4000C40E1A8219821E821D821C821B82B4CF9D
:100D50001F920F920FB60F9211242F933F938F93F0
:100D60009F93AF93BF9380917D0290917E02A0915B
:100D70007F02B091800230917C0223E0230F2D3757
:100D800058F50196A11DB11D20937C0280937D0230
:100D900090937E02A0937F02B093800280918102A3
:100DA00090918202A0918302B09184020196A11DCC
:100DB000B11D8093810290938202A0938302B0932D
:100DC0008402BF91AF919F918F913F912F910F908E
:100DD0000FBE0F901F90189526E8230F0296A11DB5
:100DE000B11DD2CF1F920F920FB60F9211240BB6E6
:100DF0000F922F933F934F935F936F937F938F93B4
:100E00009F93AF93BF93EF93FF9385E892E00E9487
:100E10005C03FF91EF91BF91AF919F918F917F9173
:100E20006F915F914F913F912F910F900BBE0F905B
:100E30000FBE0F901F9018951F920F920FB60F9232
:100E400011240BB60F922F933F934F935F936F93A1
:100E50007F938F939F93AF93BF93EF93FF9385E817
:100E600092E00E94B602FF91EF91BF91AF919F91E6
:100E70008F917F916F915F914F913F912F910F9043
:100E80000BBE0F900FBE0F901F9018951F920F92E0
:100E90000FB60F9211240BB60F922F933F934F93DF
:100EA0005F936F937F938F939F93AF93BF93EF93D2
:100EB000FF9382E293E00E945C03FF91EF91BF9168
:100EC000AF919F918F917F916F915F914F913F91E2
:100ED0002F910F900BBE0F900FBE0F901F90189583
:100EE0001F920F920FB60F9211240BB60F922F93F1
:100EF0003F934F935F936F937F938F939F93AF93A2
:100F0000BF93EF93FF9382E293E00E94B602FF91BA
:100F1000EF91BF91AF919F918F917F916F915F9171
:100F20004F913F912F910F900BBE0F900FBE0F90DE
:100F30001F9018951F920F920FB60F9211240BB6A7
:100F40000F922F933F934F935F936F937F938F9362
:100F50009F93AF93BF93EF93FF938FEB93E00E9428
:100F60005C03FF91EF91BF91AF919F918F917F9122
:100F70006F915F914F913F912F910F900BBE0F900A
:100F80000FBE0F901F9018951F920F920FB60F92E1
:100F900011240BB60F922F933F934F935F936F9350
:100FA0007F938F939F93AF93BF93EF93FF938FEBB9
:100FB00093E00E94B602FF91EF91BF91AF919F9194
:100FC0008F917F916F915F914F913F912F910F90F2
:100FD0000BBE0F900FBE0F901F9018951F920F928F
:100FE0000FB60F9211240BB60F922F933F934F938E
:100FF0005F936F937F938F939F93AF93BF93EF9381
:10100000FF9348E251E064E271E090E080E00E94EA
:101010009004FF91EF91BF91AF919F918F917F913C
:101020006F915F914F913F912F910F900BBE0F9059
:101030000FBE0F901F9018951F920F920FB60F9230
:1010400011240BB60F922F933F934F935F936F939F
:101050007F938F939F93AF93BF93EF93FF9348EA50
:1010600050E064EA70E083E090E00E949004FF9119
:10107000EF91BF91AF919F918F917F916F915F9110
:101080004F913F912F910F900BBE0F900FBE0F907D
:101090001F9018951F920F920FB60F9211240BB646
:1010A0000F922F933F934F935F936F937F938F9301
:1010B0009F93AF93BF93EF93FF9348E950E064E9A8
:1010C00070E082E090E00E949004FF91EF91BF9168
:1010D000AF919F918F917F916F915F914F913F91D0
:1010E0002F910F900BBE0F900FBE0F901F90189571
:1010F0001F920F920FB60F9211240BB60F922F93DF
:101100003F934F935F936F937F938F939F93AF938F
:10111000BF93EF93FF9348E850E064E870E081E00C
:1011200090E00E949004FF91EF91BF91AF919F9149
:101130008F917F916F915F914F913F912F910F9080
:101140000BBE0F900FBE0F901F9018951092880243
:101150001092870248EE53E060E070E0409389020D
:1011600050938A0260938B0270938C028CE192E020
:10117000909386028093850225ED30E030939202B1
:101180002093910224ED30E0309394022093930257
:1011900020ED30E0309396022093950221ED30E06F
:1011A000309398022093970222ED30E030939A0218
:1011B0002093990226ED30E030939C0220939B020D
:1011C00010929E0210929F021092A0021092A10211
:1011D0001092250310922403409326035093270373
:1011E0006093280370932903909323038093220331
:1011F0002DEC30E030932F0320932E032CEC30E0C5
:10120000309331032093300328EC30E030933303E4
:101210002093320329EC30E03093350320933403DC
:101220002AEC30E030933703209336032EEC30E085
:10123000309339032093380310923B0310923C0300
:1012400010923D0310923E031092C2031092C1030C
:101250004093C3035093C4036093C5037093C603C4
:101260009093C0038093BF0385EC90E09093CC03F0
:101270008093CB0384EC90E09093CE038093CD03D6
:1012800080EC90E09093D0038093CF0381EC90E0CA
:101290009093D2038093D10382EC90E09093D40397
:1012A0008093D30386EC90E09093D6038093D5038C
:1012B0001092D8031092D9031092DA031092DB0334
:1012C000E9EFF4E02BE035E04FEF68EB7BE0809155
:1012D000EC04803308F591E0980F9093EC04808340
:1012E00090E0DC01AA0FBB1FA80FB91FA45ABB4F87
:1012F00012967C936E93119733962E173F0739F70A
:1013000062E572E083EF94E00E94F40562E572E02A
:101310008DEE94E00C94F4054083EECFCF93DF93F1
:10132000CDB7DEB762970FB6F894DEBF0FBECDBF64
:10133000789484B5826084BD84B5816084BD85B5B0
:10134000826085BD85B5816085BD80916E008160BC
:1013500080936E0010928100809181008260809362
:101360008100809181008160809381008091800064
:101370008160809380008091B10084608093B1008F
:101380008091B00081608093B00080919100826074
:101390008093910080919100816080939100809171
:1013A00090008160809390008091A1008260809382
:1013B000A1008091A10081608093A1008091A00094
:1013C00081608093A000809121018260809321013F
:1013D00080912101816080932101809120018160B1
:1013E0008093200180917A00846080937A008091BC
:1013F0007A00826080937A0080917A008160809385
:101400007A0080917A00806880937A001092C100FF
:101410008FEB93E00E946B0182E293E00E946B01EC
:1014200085E892E00E946B0161E08DE00E94270256
:1014300062E086E10E94270262E087E10E942702C3
:1014400062E088E10E94270226E0C22E22E0D22E2E
:1014500009EF14E03CE0E32E42E0F42ED8018C9139
:10146000803308F055C0F601B08061E08B2D0E94FA
:101470002702D8018C91282F30E0F901EE0FFF1FD1
:10148000E20FF31FE45AFB4F2B2D2F739081907CBA
:10149000922B908311961C92119712961C926E2D8E
:1014A0000E94140E8E9DA001112430E020E0BA01AC
:1014B000620F731FFB01EE0FFF1FE60FF71FE45AC9
:1014C000FB4F908196FD16C02F5F3F4F2C303105AA
:1014D00071F7813009F05FC010928000F0928100B6
:1014E0001092850010928400B19A80916F00826002
:1014F00080936F00D801EC918E2F90E0FC01EE0FED
:10150000FF1FE80FF91FE45AFB4F8081806480833E
:1015100070E060E0C8010E9414040D5F1F4FB2E04C
:10152000CB0ED11CE5E00B301E0709F097CF8E01E2
:101530000F5F1F4F82E293E00E943203892B09F470
:101540005FC082E293E00E94DE028A3009F04DC063
:101550001A8219821C821B821E821D826091F304F2
:101560007091F4046115710539F04091F7045091C0
:10157000F804C8010E94BF056EE672E0C8010E942F
:101580000506C8010E944A0562E572E083EF94E017
:101590000E94EA05CFCF823061F4109290008093D0
:1015A0009100109295001092940088BB8093710076
:1015B000A1CF833061F41092A000F092A1001092AC
:1015C000A5001092A400F9BAF092720093CF811195
:1015D00091CF10922001F0922101109225011092DA
:1015E0002401FABAF092730085CF682F83EF94E05C
:1015F0000E94A1059FCF682F8DEE94E00E94A10567
:1016000085E892E00E9432037C01892B49F185E84C
:1016100092E00E94DE028A3071F71A8219821C82DF
:101620001B821E821D826091ED047091EE04611593
:10163000710539F04091F1045091F204C8010E9403
:10164000BF0564E672E0C8010E940506C8010E9459
:101650004A0562E572E08DEE94E00E94EA05D0CF83
:1016600082E192E0988B8F87AEE5B2E0BA8BA98BCE
:101670001D01D12CC12CEF85F88921913191F88B76
:10168000EF873327F901EA5DFD4F8491F901E052BC
:10169000FE4FB490F901E656FE4FA490A11044C04D
:1016A0000E9458022B013C01E8EC8E2E912CA12CBB
:1016B000B12C0E9458026419750986099709683E81
:1016C000734081059105A8F3F1E08F1A9108A108F4
:1016D000B10828EE420E23E0521E611C711C8114D9
:1016E0009104A104B10429F7F1018081918121E0E5
:1016F00030E0009711F030E020E0D1012D933C93D1
:10170000B12CA12C892B19F46AE5A62EB12CB501B8
:10171000C60187509B4F0E941404B501C601845036
:101720009B4F0E9414040FC081110E949201EA2D68
:10173000F0E0EE0FFF1FE45BFE4FA591B491EC913A
:10174000BE2209F4ADCFB2E02B0E311CE6E0CE0E86
:10175000D11CF2E1CF16D10409F08DCF8FEB93E0CD
:101760000E943203892B09F492C062E572E0CE0137
:1017700009960E94F4050E94F20297FD09C08A3082
:10178000910531F0682FCE0109960E94A105F3CF93
:1017900089849A848114910439F0CD84DE845401C3
:1017A000C114D10409F057C16EE272E0C8010E9471
:1017B000F405AD84BE844D815E81A416B50698F013
:1017C00089859A85009779F069817A81611571051B
:1017D00051F00E944910892B31F4DD24D39485E027
:1017E000A816B10408F4D12CC8010E944A05DD20D6
:1017F00009F449C08D859E858330910508F464C144
:10180000E985FA85309709F45FC1C2800C2C000C81
:10181000DD08A0E3CA1AD108059708F457C1E98585
:10182000FA85309709F452C1A480B3E0CB16D104F5
:1018300050F50A2C000CBB08E0E3AE1AB108CC0C42
:10184000DD1CF601E25AFD4FB182A082A114B10461
:1018500019F04AE5A42EB12CC601880F991F8C0DF2
:101860009D1DB50187509B4F0E941404FFEFCF1AB6
:10187000DF0AC601880F991F8C0D9D1DB501875089
:101880009B4F0E941404CE0109960E944A050E94B3
:101890007D0280905A0290905B02A0905C02B09012
:1018A0005D02681979098A099B09653F71408105C4
:1018B000910598F06091590281E068276093590280
:1018C0008DE00E94F9010E947D0260935A0270939C
:1018D0005B0280935C0290935D020E947D02809087
:1018E000780290907902A0907A02B0907B026819F9
:1018F00079098A099B096B3F71058105910508F4F7
:10190000A6C061E372E0CE0109960E94F4059EE64E
:10191000A92E92E0B92ED12CC12CD5018D915D015B
:101920006CE272E0882311F06AE272E0CE0109965F
:101930000E94B505B9E0CB16D10431F069E372E03D
:10194000CE0109960E94B505EFEFCE1ADE0AFAE045
:10195000CF16D10411F76BE372E0CE0109960E9415
:10196000B50584E6A82E82E0B82ED12CC12CD50175
:101970008D915D016CE272E0882311F06AE272E001
:10198000CE0109960E94B505B9E0CB16D10431F01D
:1019900069E372E0CE0109960E94B505EFEFCE1A19
:1019A000DE0AFAE0CF16D10411F764E472E0CE014A
:1019B00009960E94B5054AE0B801A989BA898D91B6
:1019C0009D91BA8BA98B0E94700DF80101900020A7
:1019D000E9F73197AF01401B510BB801CE010996D1
:1019E0000E947A05B2E0EB16F10431F069E372E08F
:1019F000CE0109960E94B505EFEFEE1AFE0AF3E05C
:101A0000EF16F104C1F66DE472E0CE0109960E9472
:101A1000B5054D855E8569857A858FEB93E00E94DB
:101A2000890242E050E060E572E08FEB93E00E94B3
:101A30008902CE0109960E944A050E947D026093A8
:101A400078027093790280937A0290937B020E94CD
:101A5000EB0370CD530135012FEF621A720AD501E5
:101A60008C91082E000C990B0E94950D892B91F7F3
:101A7000B1E0CB1AD108C80CD91CF6018081082E20
:101A8000000C990B0E94950D892B39F0CA14DB04C8
:101A900020F0F1E0CF1AD108F0CF2FEFC21AD20A0E
:101AA000A6014A195B095E874D878A149B0420F4BE
:101AB000B501C4010E942E10E985FA858D859E85A9
:101AC000E80FF91F108270CEC12CA0CEA12CADCE94
:101AD0008DEE94E00E944A0583EF94E00C944A0551
:101AE000BB274A3031F4992322F4BDE290958195C9
:101AF0009F4F0C947C0DBB27FB015527AA27880F0D
:101B0000991FAA1FA41710F0A41B83955051B9F771
:101B1000A05DAA3308F0A95DA193009779F7B111F0
:101B2000B1931192CB010C949E0D91110C94AE0DBA
:101B3000803219F089508550C8F70895DC01FC0106
:101B4000672F71917723E1F7329704C07C916D93F1
:101B500070836291AE17BF07C8F30895992788274D
:101B60000895052E97FB1EF400940E94C80D57FDA2
:101B700007D00E94E30D07FC03D04EF40C94C80D6F
:101B800050954095309521953F4F4F4F5F4F0895A9
:101B900090958095709561957F4F8F4F9F4F0895D9
:101BA0000E94050EA59F900DB49F900DA49F800DDF
:101BB000911D11240895B7FF0C94D00D0E94D00DF3
:101BC000821B930B0895A1E21A2EAA1BBB1BFD01D9
:101BD0000DC0AA1FBB1FEE1FFF1FA217B307E4070C
:101BE000F50720F0A21BB30BE40BF50B661F771F64
:101BF000881F991F1A9469F7609570958095909544
:101C00009B01AC01BD01CF010895A29FB001B39F1C
:101C1000C001A39F700D811D1124911DB29F700DF5
:101C2000811D1124911D0895991B79E004C0991F0D
:101C3000961708F0961B881F7A95C9F78095089526
:101C4000EE0FFF1F881F8BBF0790F691E02D1994B0
:101C50000F931F93CF93DF938230910510F482E0AE
:101C600090E0E0910D05F0910E0530E020E0B0E04D
:101C7000A0E0309799F42115310509F44AC0281BDA
:101C8000390B24303105D8F58A819B8161157105A6
:101C900089F1FB0193838283FE0111C04081518150
:101CA0000281138148175907E0F04817590799F442
:101CB000109761F012960C93129713961C9332961C
:101CC000CF01DF91CF911F910F91089500930D05E2
:101CD00010930E05F4CF2115310551F0421753072B
:101CE00038F0A901DB019A01BD01DF01F801C1CF84
:101CF000EF01F9CF90930E0580930D05CDCFFE0136
:101D0000E20FF31F81939193225031093983288385
:101D1000D7CF20910B0530910C05232B41F4209156
:101D200002023091030230930C0520930B052091A1
:101D30000002309101022115310541F42DB73EB763
:101D40004091040250910502241B350BE0910B05D4
:101D5000F0910C05E217F307A0F42E1B3F0B281798
:101D6000390778F0AC014E5F5F4F2417350748F014
:101D70004E0F5F1F50930C0540930B058193919379
:101D80009FCFF0E0E0E09CCFCF93DF930097E9F0A6
:101D9000FC01329713821282A0910D05B0910E05BD
:101DA000ED0130E020E01097A1F420813181820F15
:101DB000931F20910B0530910C052817390709F066
:101DC00061C0F0930C05E0930B05DF91CF9108956E
:101DD000EA01CE17DF07E8F54A815B819E014115D4
:101DE0005105B1F7E901FB83EA8349915991C40F89
:101DF000D51FEC17FD0761F4808191810296840F55
:101E0000951FE90199838883828193819B838A83CB
:101E1000F0E0E0E012968D919C9113970097B9F550
:101E20002D913C911197CD010296820F931F209125
:101E30000B0530910C052817390739F6309751F505
:101E400010920E0510920D05B0930C05A0930B0592
:101E5000BCCFD383C28340815181840F951FC817A3
:101E6000D90761F44E5F5F4F88819981480F591FF0
:101E7000518340838A819B8193838283211531051D
:101E800009F0B0CFF0930E05E0930D059ECFFD0154
:101E9000DC01C0CF13821282D7CF4F925F926F9234
:101EA0007F928F929F92AF92BF92CF92DF92EF92EA
:101EB000FF920F931F93CF93DF938C01009799F4B8
:101EC000CB01DF91CF911F910F91FF90EF90DF90A9
:101ED000CF90BF90AF909F908F907F906F905F90CA
:101EE0004F900C94280EFC01E60FF71F9C01225026
:101EF0003109E217F30708F4AEC0D901CD91DC91A6
:101F00001197C617D70720F1C530D10578F0CE015B
:101F100004978617970750F0C61BD70B2297C193DB
:101F2000D1936D937C93CF010E94C40EC801DF91C1
:101F3000CF911F910F91FF90EF90DF90CF90BF90C6
:101F4000AF909F908F907F906F905F904F9008958B
:101F50005B01AC1ABD0A4C018C0E9D1EA0910D05B3
:101F6000B0910E05512C412CF12CE12C109731F53C
:101F700080910B0590910C058815990509F05CC0BE
:101F80004616570608F058C0809100029091010251
:101F9000009741F48DB79EB740910402509105021D
:101FA000841B950BE817F90708F055C0F0930C0552
:101FB000E0930B05F90171836083B8CF8D919C91FB
:101FC000119712966C90129713967C901397A81500
:101FD000B90559F56C0142E0C40ED11CCA14DB04EA
:101FE00020F1AC014A195B09DA011296159780F0CD
:101FF0006282738251834083D9016D937C93E11493
:10200000F10471F0D7011396FC93EE9312978ECFE3
:1020100022968C0F9D1FF90191838083F301EFCFEE
:10202000F0930E05E0930D0581CF4816590608F48C
:102030002C017D01D3019ACFCB010E94280E7C0197
:10204000009749F0AE01B8010E942E10C8010E940D
:10205000C40E87016BCF10E000E068CFFB01DC010C
:1020600002C001900D9241505040D8F70895FC01F4
:102070008191861721F08823D9F799270895319700
:10208000CF010895FB01DC0101900D920020E1F7E2
:102090000895FB01DC014150504030F08D910190DA
:1020A000801919F40020B9F7881B990B089511E0E5
:1020B000C7E3D1E000E006C0802FFE010E94200EA1
:1020C0002196011DC833D10780E00807A9F7F894CD
:0220D000FFCF40
:1020D20000000F0580000200030004000500060056
:1020E2000700160017001800000000007E03890296
:1020F200CF02CB033203DE022403310030005357F8
:10210200007B226831223A5B002C005D2C2268326F
:10211200223A5B005D2C227377223A5B005D7D00E0
:042122000D0A0000A2
:00000001FF
