:100000000C9435010C9466010C9466010C94660105
:100010000C9466010C9466010C9466010C946601C4
:100020000C9466010C9466010C9466010C946601B4
:100030000C9466010C9466010C9466010C946601A4
:100040000C9466010C9466010C9466010C94660194
:100050000C9466010C9466010C9466010C94C00328
:100060000C9466010C9494040C946A040C9466013C
:100070000C9466010C9466010C9466010C94660164
:100080000C9466010C9466010C9466010C94660154
:100090000C9434040C940A040C9466010C946601CC
:1000A0000C9466010C9466010C9466010C94660134
:1000B0000C9466010C9466010C9466010C94660124
:1000C0000C9466010C9466010C9466010C94660114
:1000D0000C9466010C9466010C9466010C94660104
:1000E0000C9466010C94DA010C9460020C94AD013E
:1000F0000C94BB010C94E8010C94C2010C94BF0158
:100100000C9411030C94B3010C9482020C94D6014C
:100110000C9474020C9424020C94CA040C94E00114
:100120000C94B7010C94ED010C94C4020C94510290
:100130000C94D2010C94F2010C94CC010C94E401C7
:100140000C94EE010C94C80100002100240027004B
:100150002A002D00300033000101000004010701D6
:100160000A01000020002300260029002C002F0097
:100170003200000100000301060109010000220015
:10018000250028002B002E00310034000201000061
:10019000050108010B010505050507050808080804
:1001A000020202020A0A080804040404010101010F
:1001B000010101010303030303030303040707070A
:1001C0000C0C0C0C0C0C0C0C0202020206060606AF
:1001D000060606060B0B0B0B0B0B0B0B010210207C
:1001E000200808102040102040800201020108046D
:1001F0000201010204081020408080402010080401
:100200000201800402018040201008040201080459
:10021000020101020408102040800102040810209D
:10022000408000000A0B02090C0D0E0807030401B0
:1002300000000000000000000000000000000000BE
:10024000000000000000000000000000000012118B
:10025000100000000000000000000000000000008E
:100260000000000000000000CA0411241FBECFEFF0
:10027000D1E2DEBFCDBF00E00CBF23E0A4E7B2E0D7
:1002800001C01D92A93CB207E1F712E0A0E0B2E084
:10029000E6E3F2E100E00BBF02C007900D92A43745
:1002A000B107D9F711E0C5E3D1E000E006C021971E
:1002B0000109802FFE010E94FB06C433D10780E0B4
:1002C0000807A9F70E941D050C9419090C94000059
:1002D000FC01A089B18982E08C93A485B5851C922C
:1002E000A685B7858FEC8C93108EA489B58986E09E
:1002F0008C93A289B3898C9180618C93A289B389F4
:100300008C9188608C93A289B3898C9180688C933E
:100310000288F389E02D80818F7D8083089581504C
:10032000823108F05AC0E82FF0E08827E556FE4FEA
:100330008F4F0C94FB06BB01BF01AD01B301B701A8
:10034000ED01C201C801CC01D201D601DA01E00100
:10035000E401ED01E801EE01F201809180008F7768
:10036000809380000895809180008F7DF9CF8091E7
:100370008000877FF5CF84B58F7784BD089584B5DD
:100380008F7DFBCF8091B0008F778093B000089570
:100390008091B0008F7DF9CF809190008F7780930E
:1003A00090000895809190008F7DF9CF809190000A
:1003B000877FF5CF8091A0008F778093A00008956C
:1003C0008091A0008F7DF9CF8091A000877FF5CF2D
:1003D000809120018F7780932001089580912001E2
:1003E0008F7DF9CF80912001877FF5CF1F93CF9329
:1003F000DF93282F30E0F901EE5DFD4F8491F90184
:10040000E452FE4FD491F901EA56FE4FC491CC2339
:10041000A9F0162F81110E948F01EC2FF0E0EE0F52
:10042000FF1FE458FE4FA591B4918FB7F894EC915B
:10043000111108C0D095DE23DC938FBFDF91CF91DF
:100440001F910895DE2BF8CFAF92BF92CF92DF922B
:10045000EF92FF920F931F93CF93DF936C017B0179
:100460008B01040F151FEB015E01AE18BF08C0170A
:10047000D10759F06991D601ED91FC910190F0817D
:10048000E02DC6011995892B79F7C501DF91CF9130
:100490001F910F91FF90EF90DF90CF90BF90AF90A2
:1004A0000895FC01538D448D252F30E0842F90E07A
:1004B000821B930B541710F0CF960895019708955F
:1004C000FC01918D828D981761F0A28DAE0FBF2F28
:1004D000B11D5D968C91928D9F5F9F73928F90E07E
:1004E00008958FEF9FEF0895FC01918D828D9817ED
:1004F00031F0828DE80FF11D858D90E008958FEF2A
:100500009FEF0895FC01918D228D892F90E0805CF2
:100510009F4F821B91098F73992708958BE892E072
:100520000E94820221E0892B09F420E0822F0895A5
:1005300088E293E00E94820221E0892B09F420E006
:10054000822F0895FC01A48DA80FB92FB11DA35AC5
:10055000BF4F2C91848D90E001968F739927848FE3
:10056000A689B7892C93A089B1898C918370806406
:100570008C93938D848D981306C00288F389E02DA7
:1005800080818F7D80830895EF92FF920F931F9358
:10059000CF93DF93EC0181E0888F9B8D8C8D981336
:1005A0001AC0E889F989808185FF15C09FB7F89442
:1005B000EE89FF896083E889F9898081837080648E
:1005C00080839FBF81E090E0DF91CF911F910F91D9
:1005D000FF90EF900895F62E0B8D10E00F5F1F4FE8
:1005E0000F731127E02E8C8D8E110CC00FB607FCF7
:1005F000FACFE889F989808185FFF5CFCE010E9485
:10060000A202F1CFEB8DEC0FFD2FF11DE35AFF4F4E
:10061000F0829FB7F8940B8FEA89FB898081806212
:10062000CFCFCF93DF93EC01888D8823B9F0AA89CF
:10063000BB89E889F9898C9185FD03C0808186FD9D
:100640000DC00FB607FCF7CF8C9185FFF2CF8081EC
:1006500085FFEDCFCE010E94A202E9CFDF91CF91BD
:10066000089580E090E0892B29F00E949802811182
:100670000E94000080E090E0892B29F00E948E0209
:1006800081110E94000080E090E0892B49F080E019
:1006900090E0892B29F00E94000081110E94000047
:1006A00080E090E0892B49F080E090E0892B29F0F0
:1006B0000E94000081110C94000008950F931F9375
:1006C000CF93DF93EC018B0161E00115110509F077
:1006D00060E086E08C9FF0018D9FF00D1124EA5FB1
:1006E000FD4F80810E94F60161E00130110509F0A3
:1006F00060E086E08C9FF0018D9FF00D1124EA5F91
:10070000FD4F82810E94F60161E00230110509F07F
:1007100060E086E08C9FF0018D9FF00D1124EA5F70
:10072000FD4F8481DF91CF911F910F910C94F601C1
:100730000F931F93CF93DF93EC01888199810097EA
:1007400059F02A813B812617370730F081E0DF918D
:10075000CF911F910F9108958B016F5F7F4F0E9482
:100760002808009759F0998388831B830A832C817A
:100770003D81232B59F7FC011082E8CF80E0E7CFC1
:100780001F920F920FB60F9211242F933F938F93C6
:100790009F93AF93BF938091870290918802A0911D
:1007A0008902B0918A023091860223E0230F2D370F
:1007B00058F50196A11DB11D2093860280938702F2
:1007C00090938802A0938902B0938A02809182025A
:1007D00090918302A0918402B09185020196A11D9F
:1007E000B11D8093820290938302A0938402B09300
:1007F0008502BF91AF919F918F913F912F910F9063
:100800000FBE0F901F90189526E8230F0296A11D8A
:10081000B11DD2CF1F920F920FB60F9211240BB6BB
:100820000F922F933F934F935F936F937F938F9389
:100830009F93AF93BF93EF93FF938BE892E00E9457
:10084000A202FF91EF91BF91AF919F918F917F9104
:100850006F915F914F913F912F910F900BBE0F9031
:100860000FBE0F901F9018951F920F920FB60F9208
:1008700011240BB60F922F938F939F93EF93FF93B7
:10088000E0919B02F0919C028081E091A102F091A5
:10089000A20282FD1DC090818091A4028F5F8F73A0
:1008A0002091A502821741F0E091A402F0E0E55703
:1008B000FD4F958F8093A402FF91EF919F918F91AF
:1008C0002F910F900BBE0F900FBE0F901F90189599
:1008D0008081F2CF1F920F920FB60F9211240BB6A8
:1008E0000F922F933F934F935F936F937F938F93C9
:1008F0009F93AF93BF93EF93FF9388E293E00E949F
:10090000A202FF91EF91BF91AF919F918F917F9143
:100910006F915F914F913F912F910F900BBE0F9070
:100920000FBE0F901F9018951F920F920FB60F9247
:1009300011240BB60F922F938F939F93EF93FF93F6
:10094000E0913803F09139038081E0913E03F0910A
:100950003F0382FD1DC09081809141038F5F8F73A3
:1009600020914203821741F0E0914103F0E0E85DFD
:10097000FC4F958F80934103FF91EF919F918F9151
:100980002F910F900BBE0F900FBE0F901F901895D8
:100990008081F2CFEBE8F2E01382128248EE53E05E
:1009A00060E070E044835583668377838AE592E054
:1009B000918380832DEC30E0358724872CEC30E068
:1009C0003787268728EC30E0318B208B29EC30E00C
:1009D000338B228B2AEC30E0358B248B2EEC30E0ED
:1009E000378B268B118E128E138E148EE8E2F3E075
:1009F0001382128244835583668377839183808335
:100A000085EC90E09587848784EC90E097878687D3
:100A100080EC90E0918B808B81EC90E0938B828BCB
:100A200082EC90E0958B848B86EC90E0978B868BA4
:100A3000118E128E138E148E0895CF93DF9300D0F3
:100A400000D0CDB7DEB7789484B5826084BD84B51C
:100A5000816084BD85B5826085BD85B5816085BDB9
:100A600080916E00816080936E0010928100809171
:100A700081008260809381008091810081608093F9
:100A80008100809180008160809380008091B1001E
:100A900084608093B1008091B00081608093B00049
:100AA000809191008260809391008091910081609B
:100AB000809391008091900081608093900080915C
:100AC000A10082608093A1008091A1008160809349
:100AD000A1008091A00081608093A00080912101FD
:100AE00082608093210180912101816080932101A6
:100AF0008091200181608093200180917A00846040
:100B000080937A0080917A00826080937A0080914D
:100B10007A00816080937A0080917A008068809367
:100B20007A001092C10088E293E00E9468018BE88D
:100B300092E00E946801A2E4B2E02AE030E042E4E0
:100B400052E066E08D919D919927FC01E452FE4FA1
:100B500074918A569E4FFC0184918823D1F090E0D5
:100B6000880F991FFC01E85BFE4F05911491FC0171
:100B7000E458FE4FE590F4909FB7F894F801D080C8
:100B8000872F80958D218083F7018081782B70835A
:100B90009FBF629FC001639F900D11247A01E81AE4
:100BA000F90A10E000E0F701819191917F01992706
:100BB000FC01E452FE4F7491FC01EA56FE4FE491B1
:100BC000EE23A9F08E2F90E0880F991FFC01E85BBF
:100BD000FE4FC590D490FC01E458FE4F859194914E
:100BE0008FB7F894F6019081792B70838FBF0F5FD8
:100BF0001F4F03301105B9F62150310909F0A2CF7A
:100C000056E5A52E52E0B52E6EE7862E62E0962EB2
:100C100004E712E0680142E4E42E42E0F42EF7011A
:100C2000219131917F013327F901EE5DFD4F8491D0
:100C3000F901E452FE4F7490F901EA56FE4F6490B8
:100C4000662009F4CBC081110E948F01E62DF0E0EF
:100C5000EE0FFF1FEE59FE4FA591B491EC917E224D
:100C600031E020E009F430E0832F922FF1E08F276C
:100C70008170F60181936F01AE14BF0481F624E701
:100C8000C22E22E0D22EF12CE12CF60181916F01CF
:100C900070E060E081110CC0F9E0EF16F10431F072
:100CA000F601808161E070E0811102C062E070E0D5
:100CB000C7010E945E03FFEFEF1AFF0A2AE0E21667
:100CC000F10419F72FB7F894809187029091880268
:100CD000A0918902B0918A022FBF40917E0250916B
:100CE0007F026091800270918102841B950BA60B9C
:100CF000B70B8B3F9105A105B10508F46CC01A82B2
:100D000019821C821B821E821D8263E070E0CE016C
:100D100001960E94980329813A81811162C02115B0
:100D2000310519F0C9010E949F071A8219821E829B
:100D30001D821C821B82F80181918F0198E6C92EC9
:100D400092E0D92E882321F08AE6C82E82E0D82EA0
:100D5000ED80FE80FFEFEF1AFF0AB701CE0101968A
:100D60000E949803882359F029813A818D819E81C0
:100D7000B601820F931F0E941209FE82ED82801637
:100D80009106C9F64D815E8169817A818BE892E096
:100D90000E94240242E050E060E772E08BE892E0BB
:100DA0000E94240289819A81009711F00E949F0776
:100DB0002FB7F8948091870290918802A0918902C0
:100DC000B0918A022FBF80937E0290937F02A093FE
:100DD0008002B09381020E9431031ACF90E080E03C
:100DE00045CF83E090E09E838D836CE672E0C9017D
:100DF0000E941209A0CFEE0FFF1F881F8BBF079024
:100E0000F691E02D19940F931F93CF93DF938230C7
:100E1000910510F482E090E0E091C703F091C803DF
:100E200030E020E0B0E0A0E0309799F421153105E2
:100E300009F44AC0281B390B24303105D8F58A81C2
:100E40009B816115710589F1FB0193838283FE010A
:100E500011C0408151810281138148175907E0F088
:100E60004817590799F4109761F012960C9312974E
:100E700013961C933296CF01DF91CF911F910F9162
:100E800008950093C7031093C803F4CF21153105CB
:100E900051F04217530738F0A901DB019A01BD0157
:100EA000DF01F801C1CFEF01F9CF9093C803809320
:100EB000C703CDCFFE01E20FF31F81939193225020
:100EC000310939832883D7CF2091C5033091C603D8
:100ED000232B41F420910202309103023093C60388
:100EE0002093C503209100023091010221153105A4
:100EF00041F42DB73EB74091040250910502241BE6
:100F0000350BE091C503F091C603E217F307A0F497
:100F10002E1B3F0B2817390778F0AC014E5F5F4F4F
:100F20002417350748F04E0F5F1F5093C6034093B8
:100F3000C503819391939FCFF0E0E0E09CCFCF93E6
:100F4000DF930097E9F0FC01329713821282A0919F
:100F5000C703B091C803ED0130E020E01097A1F481
:100F600020813181820F931F2091C5033091C603E8
:100F70002817390709F061C0F093C603E093C50351
:100F8000DF91CF910895EA01CE17DF07E8F54A8196
:100F90005B819E0141155105B1F7E901FB83EA83AD
:100FA00049915991C40FD51FEC17FD0761F4808159
:100FB00091810296840F951FE9019983888382812C
:100FC00093819B838A83F0E0E0E012968D919C915F
:100FD00013970097B9F52D913C911197CD01029689
:100FE000820F931F2091C5033091C603281739073C
:100FF00039F6309751F51092C8031092C703B09399
:10100000C603A093C503BCCFD383C2834081518163
:10101000840F951FC817D90761F44E5F5F4F888111
:101020009981480F591F518340838A819B81938303
:1010300082832115310509F0B0CFF093C803E09306
:10104000C7039ECFFD01DC01C0CF13821282D7CF30
:101050004F925F926F927F928F929F92AF92BF92C8
:10106000CF92DF92EF92FF920F931F93CF93DF9374
:101070008C01009799F4CB01DF91CF911F910F91D3
:10108000FF90EF90DF90CF90BF90AF909F908F90A8
:101090007F906F905F904F900C940307FC01E60FD8
:1010A000F71F9C0122503109E217F30708F4AEC084
:1010B000D901CD91DC911197C617D70720F1C53022
:1010C000D10578F0CE0104978617970750F0C61B1C
:1010D000D70B2297C193D1936D937C93CF010E943C
:1010E0009F07C801DF91CF911F910F91FF90EF9063
:1010F000DF90CF90BF90AF909F908F907F906F9038
:101100005F904F9008955B01AC1ABD0A4C018C0EA4
:101110009D1EA091C703B091C803512C412CF12C06
:10112000E12C109731F58091C5039091C603881585
:10113000990509F05CC04616570608F058C0809122
:10114000000290910102009741F48DB79EB7409143
:10115000040250910502841B950BE817F90708F06B
:1011600055C0F093C603E093C503F9017183608312
:10117000B8CF8D919C91119712966C9012971396FF
:101180007C901397A815B90559F56C0142E0C40E7F
:10119000D11CCA14DB0420F1AC014A195B09DA0145
:1011A0001296159780F06282738251834083D90131
:1011B0006D937C93E114F10471F0D7011396FC93C5
:1011C000EE9312978ECF22968C0F9D1FF90191837B
:1011D0008083F301EFCFF093C803E093C70381CF7F
:1011E0004816590608F42C017D01D3019ACFCB0192
:1011F0000E9403077C01009749F0AE01B8010E94EC
:101200000909C8010E949F0787016BCF10E000E029
:1012100068CFFB01DC0102C001900D9241505040AB
:10122000D8F70895FB01DC0101900D920020E1F751
:061230000895F894FFCFC1
:101236000000C903800020002100220023002400B2
:10124600250026002700280029002A002B002C0054
:101256002D002E002F003000310032003300340004
:10126600350036003700380039003A003B003C00B4
:101276003D0016001700180019001A001B001C007C
:101286001D001E001F0000000000C40224025102BF
:1012960011038202600274023000310048313A00C4
:0412A6000D0A00002D
:00000001FF
